:100000000C9434000C943E000C943E000C943E0082
:100010000C943E000C943E000C943E000C943E0068
:100020000C943E000C943E000C943E000C943E0058
:100030000C943E000C943E000C943E000C943E0048
:100040000C943E000C943E000C943E000C943E0038
:100050000C943E000C943E000C943E000C943E0028
:100060000C943E000C943E0011241FBECFEFD8E04C
:10007000DEBFCDBF0E9440000C9460000C940000D5
:100080005298259A15B880E090E020E2911102C0C4
:1000900025B903C0913009F415B84A9BF7CF4A99A6
:1000A000FECF8F5F911105C08A3091F780E091E01B
:1000B000F3CF913059F7853079F780E090E0E8CFC1
:0400C000F894FFCFE2
:00000001FF
