:100000000C9434000C943E000C943E000C943E0082
:100010000C943E000C943E000C943E000C943E0068
:100020000C943E000C943E000C943E000C943E0058
:100030000C943E000C943E000C943E000C943E0048
:100040000C943E000C943E000C943E000C943E0038
:100050000C943E000C943E000C943E000C943E0028
:100060000C943E000C943E0011241FBECFEFD8E04C
:10007000DEBFCDBF0E9440000C9476000C940000BF
:100080008FEF8AB91BB884B915B840E020E830E09A
:10009000473098F4C901042E02C0959587950A94BB
:1000A000E2F785B95FEF63EC89E051506040804032
:1000B000E1F700C000004F5FEBCF80E090E0A901C6
:1000C000082E02C0559547950A94E2F74BB94FEFB9
:1000D00053EC69E0415050406040E1F700C000003F
:1000E00001968730910559F740E0D4CFF894FFCFBF
:00000001FF
