:100000000C9434000C943E000C943E000C943E0082
:100010000C943E000C943E000C943E000C943E0068
:100020000C943E000C943E000C943E000C943E0058
:100030000C943E000C943E000C943E000C943E0048
:100040000C943E000C943E000C943E000C943E0038
:100050000C943E000C943E000C943E000C943E0028
:100060000C943E000C943E0011241FBECFEFD8E04C
:10007000DEBFCDBF0E9440000C9458000C940000DD
:100080005598259A15B880E04D9B04C08A3010F42D
:100090008F5FFACF8A3031F42D9880E003C085302D
:1000A00018F48F5F4D99FBCF853071F72D9AEBCF08
:0400B000F894FFCFF2
:00000001FF
