:100000000C9434000C9449000C9449000C94490061
:100010000C9449000C9449000C9449000C9449003C
:100020000C9449000C9449000C9449000C9449002C
:100030000C9449000C9449000C9449000C9449001C
:100040000C9449000C9449000C9449000C9449000C
:100050000C9449000C9449000C9449000C944900FC
:100060000C9449000C94490011241FBECFEFD8E036
:10007000DEBFCDBF11E0A0E0B1E0E6ECF0E002C0F1
:1000800005900D92A031B107D9F70E944B000C9456
:1000900061000C9400008FEF8AB91BB880E091E0FA
:1000A000805FE0E0F1E091919BB92FEF39E698E1B4
:1000B000215030409040E1F700C000008E13F3CF94
:0600C000F0CFF894FFCF21
:1000C6003F065B4F666D7D077F6F777C395E797182
:00000001FF
